{
    "contractName": "StudentDatabase",
    "abi": [
        {
            "anonymous": false,
            "inputs": [
                {
                    "indexed": false,
                    "internalType": "uint256",
                    "name": "id",
                    "type": "uint256"
                },
                {
                    "indexed": false,
                    "internalType": "string",
                    "name": "name",
                    "type": "string"
                },
                {
                    "indexed": false,
                    "internalType": "uint8",
                    "name": "age",
                    "type": "uint8"
                }
            ],
            "name": "StudentAdded",
            "type": "event"
        },
        {
            "stateMutability": "payable",
            "type": "fallback"
        },
        {
            "inputs": [
                {
                    "internalType": "uint256",
                    "name": "_id",
                    "type": "uint256"
                },
                {
                    "internalType": "string",
                    "name": "_name",
                    "type": "string"
                },
                {
                    "internalType": "uint8",
                    "name": "_age",
                    "type": "uint8"
                }
            ],
            "name": "addStudent",
            "outputs": [],
            "stateMutability": "nonpayable",
            "type": "function"
        },
        {
            "inputs": [],
            "name": "getContractBalance",
            "outputs": [
                {
                    "internalType": "uint256",
                    "name": "",
                    "type": "uint256"
                }
            ],
            "stateMutability": "view",
            "type": "function"
        },
        {
            "inputs": [],
            "name": "getStudents",
            "outputs": [
                {
                    "components": [
                        {
                            "internalType": "uint256",
                            "name": "id",
                            "type": "uint256"
                        },
                        {
                            "internalType": "string",
                            "name": "name",
                            "type": "string"
                        },
                        {
                            "internalType": "uint8",
                            "name": "age",
                            "type": "uint8"
                        }
                    ],
                    "internalType": "struct StudentDatabase.Student[]",
                    "name": "",
                    "type": "tuple[]"
                }
            ],
            "stateMutability": "view",
            "type": "function"
        },
        {
            "inputs": [
                {
                    "internalType": "uint256",
                    "name": "",
                    "type": "uint256"
                }
            ],
            "name": "students",
            "outputs": [
                {
                    "internalType": "uint256",
                    "name": "id",
                    "type": "uint256"
                },
                {
                    "internalType": "string",
                    "name": "name",
                    "type": "string"
                },
                {
                    "internalType": "uint8",
                    "name": "age",
                    "type": "uint8"
                }
            ],
            "stateMutability": "view",
            "type": "function"
        },
        {
            "stateMutability": "payable",
            "type": "receive"
        }
    ],
    "bytecode": "608080604052346015576106ff908161001a8239f35b5f80fdfe60806040526004361015610010575b005b5f3560e01c806306ead22e146104cc5780636f9fb98a146104b1578063d9acc91c1461018b5763f1d064b30361000e5734610187575f366003190112610187575f5467ffffffffffffffff8111610173576040519061007560208260051b01836105bc565b8082526020820190815f80527f290decd9548b62a8d60345a988386fc84ba6bc95484008f6362f93160ef3e5635f915b83831061013257848660405191829160208301906020845251809152604083019060408160051b85010192915f905b8282106100e357505050500390f35b919360019193955060208091603f1989820301855287519081518152604060ff8161011b86860151606088870152606086019061067e565b9401511691015296019201920185949391926100d4565b60036020600192604051610145816105a0565b855481526101548587016105de565b8382015260ff60028701541660408201528152019201920191906100a5565b634e487b7160e01b5f52604160045260245ffd5b5f80fd5b346101875760603660031901126101875760043560243567ffffffffffffffff8111610187573660238201121561018757806004013567ffffffffffffffff811161017357604051916101e8601f8301601f1916602001846105bc565b818352366024838301011161018757815f9260246020930183860137830101526044359160ff83169283810361018757815f52600160205260ff60405f20541661046c578315610427576040519361023f856105a0565b8285526020850194848652604081019182525f54680100000000000000008110156101735780600161027392015f5561051c565b9190916104145751815560018101955195865167ffffffffffffffff81116101735761029f8254610568565b601f81116103cf575b506020601f8211600114610341579260ff92826002936103319897967f4f00b4bf8149f488952a4f91a5664c7677554a1a76bfa29dbeaa73fc96e12d6b9c5f92610336575b50508160011b915f199060031b1c19161790555b0191511660ff19825416179055825f52600160205260405f20600160ff19825416179055604051938493846106a2565b0390a1005b015190508c806102ed565b601f19821698835f52815f20995f5b8181106103b75750837f4f00b4bf8149f488952a4f91a5664c7677554a1a76bfa29dbeaa73fc96e12d6b9b6103319998979460ff97946002976001951061039f575b505050811b019055610301565b01515f1960f88460031b161c191690558c8080610392565b838301518c556001909b019a60209384019301610350565b825f5260205f20601f830160051c8101916020841061040a575b601f0160051c01905b8181106103ff57506102a8565b5f81556001016103f2565b90915081906103e9565b634e487b7160e01b5f525f60045260245ffd5b60405162461bcd60e51b815260206004820152601d60248201527f416765206d7573742062652067726561746572207468616e207a65726f0000006044820152606490fd5b60405162461bcd60e51b815260206004820152601960248201527f53747564656e7420494420616c726561647920657869737473000000000000006044820152606490fd5b34610187575f36600319011261018757602047604051908152f35b34610187576020366003190112610187576004355f54811015610187576104f29061051c565b50805461051860ff6002610508600186016105de565b94015416604051938493846106a2565b0390f35b5f54811015610554575f8080526003919091027f290decd9548b62a8d60345a988386fc84ba6bc95484008f6362f93160ef3e5630191565b634e487b7160e01b5f52603260045260245ffd5b90600182811c92168015610596575b602083101461058257565b634e487b7160e01b5f52602260045260245ffd5b91607f1691610577565b6060810190811067ffffffffffffffff82111761017357604052565b90601f8019910116810190811067ffffffffffffffff82111761017357604052565b9060405191825f8254926105f184610568565b808452936001811690811561065c5750600114610618575b50610616925003836105bc565b565b90505f9291925260205f20905f915b818310610640575050906020610616928201015f610609565b6020919350806001915483858901015201910190918492610627565b90506020925061061694915060ff191682840152151560051b8201015f610609565b805180835260209291819084018484015e5f828201840152601f01601f1916010190565b916106c260ff91604093969596855260606020860152606085019061067e565b941691015256fea2646970667358221220ea2e032ad170bae1cc480a1d0e843055c533f4a08859bf95da15cf5f8cd8e17b64736f6c634300081c0033",
    "sourcePath": "c:/Users/Sandesh T/Documents/LP III/BCT/studentData.sol",
    "compiler": {
        "name": "solc",
        "version": "0.8.28+commit.7893614a"
    },
    "functionHashes": {
        "addStudent(uint256,string,uint8)": "d9acc91c",
        "getContractBalance()": "6f9fb98a",
        "getStudents()": "f1d064b3",
        "students(uint256)": "06ead22e"
    },
    "gasEstimates": {
        "creation": {
            "codeDepositCost": "358200",
            "executionCost": "400",
            "totalCost": "358600"
        },
        "external": {
            "": "140",
            "addStudent(uint256,string,uint8)": "infinite",
            "getContractBalance()": "172",
            "getStudents()": "infinite",
            "students(uint256)": "infinite"
        }
    }
}